{
  "contractName": "Item",
  "abi": [
    {
      "inputs": [
        {
          "internalType": "contract ItemManager",
          "name": "_parentContract",
          "type": "address"
        },
        {
          "internalType": "uint256",
          "name": "_priceInWei",
          "type": "uint256"
        },
        {
          "internalType": "uint256",
          "name": "_index",
          "type": "uint256"
        }
      ],
      "stateMutability": "nonpayable",
      "type": "constructor"
    },
    {
      "stateMutability": "nonpayable",
      "type": "fallback"
    },
    {
      "inputs": [],
      "name": "index",
      "outputs": [
        {
          "internalType": "uint256",
          "name": "",
          "type": "uint256"
        }
      ],
      "stateMutability": "view",
      "type": "function"
    },
    {
      "inputs": [],
      "name": "paidWei",
      "outputs": [
        {
          "internalType": "uint256",
          "name": "",
          "type": "uint256"
        }
      ],
      "stateMutability": "view",
      "type": "function"
    },
    {
      "inputs": [],
      "name": "priceInWei",
      "outputs": [
        {
          "internalType": "uint256",
          "name": "",
          "type": "uint256"
        }
      ],
      "stateMutability": "view",
      "type": "function"
    },
    {
      "stateMutability": "payable",
      "type": "receive"
    }
  ],
  "bytecode": "0x608060405234801561001057600080fd5b506040516105a73803806105a7833981810160405281019061003291906100b3565b816000819055508060028190555082600360006101000a81548173ffffffffffffffffffffffffffffffffffffffff021916908373ffffffffffffffffffffffffffffffffffffffff160217905550505050610187565b60008151905061009881610159565b92915050565b6000815190506100ad81610170565b92915050565b6000806000606084860312156100cc576100cb610154565b5b60006100da86828701610089565b93505060206100eb8682870161009e565b92505060406100fc8682870161009e565b9150509250925092565b60006101118261012a565b9050919050565b600061012382610106565b9050919050565b600073ffffffffffffffffffffffffffffffffffffffff82169050919050565b6000819050919050565b600080fd5b61016281610118565b811461016d57600080fd5b50565b6101798161014a565b811461018457600080fd5b50565b610411806101966000396000f3fe6080604052600436106100385760003560e01c80632986c0e5146101805780633c8da588146101ab57806383d12eef146101d657610171565b36610171576000543414610081576040517f08c379a000000000000000000000000000000000000000000000000000000000815260040161007890610268565b60405180910390fd5b6000600154146100c6576040517f08c379a00000000000000000000000000000000000000000000000000000000081526004016100bd90610288565b60405180910390fd5b34600160008282546100d891906102d4565b92505081905550600360009054906101000a900473ffffffffffffffffffffffffffffffffffffffff1673ffffffffffffffffffffffffffffffffffffffff166385c808d8346002546040518363ffffffff1660e01b815260040161013d91906102a8565b6000604051808303818588803b15801561015657600080fd5b505af115801561016a573d6000803e3d6000fd5b5050505050005b34801561017d57600080fd5b50005b34801561018c57600080fd5b50610195610201565b6040516101a291906102a8565b60405180910390f35b3480156101b757600080fd5b506101c0610207565b6040516101cd91906102a8565b60405180910390f35b3480156101e257600080fd5b506101eb61020d565b6040516101f891906102a8565b60405180910390f35b60025481565b60005481565b60015481565b60006102206022836102c3565b915061022b82610363565b604082019050919050565b60006102436014836102c3565b915061024e826103b2565b602082019050919050565b6102628161032a565b82525050565b6000602082019050818103600083015261028181610213565b9050919050565b600060208201905081810360008301526102a181610236565b9050919050565b60006020820190506102bd6000830184610259565b92915050565b600082825260208201905092915050565b60006102df8261032a565b91506102ea8361032a565b9250827fffffffffffffffffffffffffffffffffffffffffffffffffffffffffffffffff0382111561031f5761031e610334565b5b828201905092915050565b6000819050919050565b7f4e487b7100000000000000000000000000000000000000000000000000000000600052601160045260246000fd5b7f446f6573206e6f74206d617463682066756c6c207072696365206f662069746560008201527f6d2e000000000000000000000000000000000000000000000000000000000000602082015250565b7f4974656d20697320616c7265616479207061696400000000000000000000000060008201525056fea26469706673582212206888ec5debdad3d516c93eac939588ce8989193776c7056ff91ce7d5f2cfff8c64736f6c63430008060033",
  "immutableReferences": {},
  "source": "// SPDX-License-Identifier: MIT\npragma solidity >=0.8.6 <0.9.0;\nimport './ItemManager.sol';\n\ncontract Item {\n    uint public priceInWei;\n    uint public paidWei;\n    uint public index;\n    \n    ItemManager parentContract;\n    \n    constructor(ItemManager _parentContract, uint _priceInWei, uint _index) {\n        priceInWei = _priceInWei;\n        index = _index;\n        parentContract = _parentContract;\n    }\n    \n    receive() external payable {\n        require(msg.value == priceInWei, \"Does not match full price of item.\");\n        require(paidWei == 0, \"Item is already paid\");\n        paidWei += msg.value;\n        parentContract.payItem{value: msg.value}(index);\n    }\n    \n    fallback() external {}\n}\n",
  "sourcePath": "/Users/cedric/Documents/Projects/supply-chain-monorepo/contracts/Item.sol",
  "compiler": {
    "name": "solc",
    "version": "0.8.6+commit.11564f7e.Emscripten.clang"
  },
  "schemaVersion": "3.4.1",
  "updatedAt": "2021-06-28T06:05:29.454Z",
  "devdoc": {
    "kind": "dev",
    "methods": {},
    "version": 1
  },
  "userdoc": {
    "kind": "user",
    "methods": {},
    "version": 1
  }
}