{
  "contractName": "ItemManager",
  "abi": [
    {
      "anonymous": false,
      "inputs": [
        {
          "indexed": true,
          "internalType": "address",
          "name": "previousOwner",
          "type": "address"
        },
        {
          "indexed": true,
          "internalType": "address",
          "name": "newOwner",
          "type": "address"
        }
      ],
      "name": "OwnershipTransferred",
      "type": "event"
    },
    {
      "anonymous": false,
      "inputs": [
        {
          "indexed": false,
          "internalType": "uint256",
          "name": "_itemIndex",
          "type": "uint256"
        },
        {
          "indexed": false,
          "internalType": "uint256",
          "name": "_step",
          "type": "uint256"
        },
        {
          "indexed": false,
          "internalType": "address",
          "name": "_address",
          "type": "address"
        }
      ],
      "name": "addSupplyChainStep",
      "type": "event"
    },
    {
      "inputs": [
        {
          "internalType": "uint256",
          "name": "",
          "type": "uint256"
        }
      ],
      "name": "items",
      "outputs": [
        {
          "internalType": "contract Item",
          "name": "_item",
          "type": "address"
        },
        {
          "internalType": "enum ItemManager.SupplyChainSteps",
          "name": "_step",
          "type": "uint8"
        },
        {
          "internalType": "string",
          "name": "_identifier",
          "type": "string"
        }
      ],
      "stateMutability": "view",
      "type": "function",
      "constant": true
    },
    {
      "inputs": [],
      "name": "owner",
      "outputs": [
        {
          "internalType": "address",
          "name": "",
          "type": "address"
        }
      ],
      "stateMutability": "view",
      "type": "function",
      "constant": true
    },
    {
      "inputs": [],
      "name": "renounceOwnership",
      "outputs": [],
      "stateMutability": "nonpayable",
      "type": "function"
    },
    {
      "inputs": [
        {
          "internalType": "address",
          "name": "newOwner",
          "type": "address"
        }
      ],
      "name": "transferOwnership",
      "outputs": [],
      "stateMutability": "nonpayable",
      "type": "function"
    },
    {
      "inputs": [
        {
          "internalType": "string",
          "name": "_identifier",
          "type": "string"
        },
        {
          "internalType": "uint256",
          "name": "_priceInWei",
          "type": "uint256"
        }
      ],
      "name": "createItem",
      "outputs": [],
      "stateMutability": "nonpayable",
      "type": "function"
    },
    {
      "inputs": [
        {
          "internalType": "uint256",
          "name": "_index",
          "type": "uint256"
        }
      ],
      "name": "payItem",
      "outputs": [],
      "stateMutability": "payable",
      "type": "function",
      "payable": true
    },
    {
      "inputs": [
        {
          "internalType": "uint256",
          "name": "_index",
          "type": "uint256"
        }
      ],
      "name": "deliverItem",
      "outputs": [],
      "stateMutability": "nonpayable",
      "type": "function"
    }
  ],
  "bytecode": "0x608060405234801561001057600080fd5b5060006100216100c460201b60201c565b9050806000806101000a81548173ffffffffffffffffffffffffffffffffffffffff021916908373ffffffffffffffffffffffffffffffffffffffff1602179055508073ffffffffffffffffffffffffffffffffffffffff16600073ffffffffffffffffffffffffffffffffffffffff167f8be0079c531659141344cd1fd0a4f28419497f9722a3daafe3b4186f6b6457e060405160405180910390a3506100cc565b600033905090565b611ecc806100db6000396000f3fe6080604052600436106200007a5760003560e01c80638da5cb5b11620000555780638da5cb5b14620000e7578063a0a5af5f1462000117578063bfb231d21462000145578063f2fde38b146200018b576200007a565b8063715018a6146200007f57806385c808d814620000995780638c55174214620000b9575b600080fd5b3480156200008c57600080fd5b5062000097620001b9565b005b620000b76004803603810190620000b1919062000ed2565b620002fa565b005b348015620000c657600080fd5b50620000e56004803603810190620000df919062000e6c565b620005ba565b005b348015620000f457600080fd5b50620000ff620007e2565b6040516200010e9190620010b6565b60405180910390f35b3480156200012457600080fd5b506200014360048036038101906200013d919062000ed2565b6200080b565b005b3480156200015257600080fd5b506200017160048036038101906200016b919062000ed2565b62000a17565b604051620001829392919062001110565b60405180910390f35b3480156200019857600080fd5b50620001b76004803603810190620001b1919062000e3a565b62000afe565b005b620001c362000cb1565b73ffffffffffffffffffffffffffffffffffffffff16620001e3620007e2565b73ffffffffffffffffffffffffffffffffffffffff16146200023c576040517f08c379a00000000000000000000000000000000000000000000000000000000081526004016200023390620011ba565b60405180910390fd5b600073ffffffffffffffffffffffffffffffffffffffff1660008054906101000a900473ffffffffffffffffffffffffffffffffffffffff1673ffffffffffffffffffffffffffffffffffffffff167f8be0079c531659141344cd1fd0a4f28419497f9722a3daafe3b4186f6b6457e060405160405180910390a360008060006101000a81548173ffffffffffffffffffffffffffffffffffffffff021916908373ffffffffffffffffffffffffffffffffffffffff160217905550565b60006001600083815260200190815260200160002060000160009054906101000a900473ffffffffffffffffffffffffffffffffffffffff1690503373ffffffffffffffffffffffffffffffffffffffff168173ffffffffffffffffffffffffffffffffffffffff1614620003a6576040517f08c379a00000000000000000000000000000000000000000000000000000000081526004016200039d90620011dc565b60405180910390fd5b348173ffffffffffffffffffffffffffffffffffffffff16633c8da5886040518163ffffffff1660e01b815260040160206040518083038186803b158015620003ee57600080fd5b505afa15801562000403573d6000803e3d6000fd5b505050506040513d601f19601f8201168201806040525081019062000429919062000f04565b11156200046d576040517f08c379a00000000000000000000000000000000000000000000000000000000081526004016200046490620011fe565b60405180910390fd5b60006002811115620004845762000483620014bd565b5b6001600084815260200190815260200160002060000160149054906101000a900460ff166002811115620004bd57620004bc620014bd565b5b1462000500576040517f08c379a0000000000000000000000000000000000000000000000000000000008152600401620004f79062001198565b60405180910390fd5b600180600084815260200190815260200160002060000160146101000a81548160ff021916908360028111156200053c576200053b620014bd565b5b02179055507f2e6b346ca9c22c4acce3d4f2a216fe96682388dfb3a4c58359e12d38ab355a9a826001600085815260200190815260200160002060000160149054906101000a900460ff1660028111156200059c576200059b620014bd565b5b83604051620005ae9392919062001220565b60405180910390a15050565b620005c462000cb1565b73ffffffffffffffffffffffffffffffffffffffff16620005e4620007e2565b73ffffffffffffffffffffffffffffffffffffffff16146200063d576040517f08c379a00000000000000000000000000000000000000000000000000000000081526004016200063490620011ba565b60405180910390fd5b60003082600254604051620006529062000cb9565b6200066093929190620010d3565b604051809103906000f0801580156200067d573d6000803e3d6000fd5b5090508060016000600254815260200190815260200160002060000160006101000a81548173ffffffffffffffffffffffffffffffffffffffff021916908373ffffffffffffffffffffffffffffffffffffffff160217905550600060016000600254815260200190815260200160002060000160146101000a81548160ff02191690836002811115620007165762000715620014bd565b5b02179055508260016000600254815260200190815260200160002060010190805190602001906200074992919062000cc7565b507f2e6b346ca9c22c4acce3d4f2a216fe96682388dfb3a4c58359e12d38ab355a9a60025460016000600254815260200190815260200160002060000160149054906101000a900460ff166002811115620007a957620007a8620014bd565b5b83604051620007bb9392919062001220565b60405180910390a160026000815480929190620007d89062001440565b9190505550505050565b60008060009054906101000a900473ffffffffffffffffffffffffffffffffffffffff16905090565b6200081562000cb1565b73ffffffffffffffffffffffffffffffffffffffff1662000835620007e2565b73ffffffffffffffffffffffffffffffffffffffff16146200088e576040517f08c379a00000000000000000000000000000000000000000000000000000000081526004016200088590620011ba565b60405180910390fd5b60006001600083815260200190815260200160002060000160009054906101000a900473ffffffffffffffffffffffffffffffffffffffff16905060016002811115620008e057620008df620014bd565b5b6001600084815260200190815260200160002060000160149054906101000a900460ff166002811115620009195762000918620014bd565b5b146200095c576040517f08c379a0000000000000000000000000000000000000000000000000000000008152600401620009539062001176565b60405180910390fd5b60026001600084815260200190815260200160002060000160146101000a81548160ff02191690836002811115620009995762000998620014bd565b5b02179055507f2e6b346ca9c22c4acce3d4f2a216fe96682388dfb3a4c58359e12d38ab355a9a826001600085815260200190815260200160002060000160149054906101000a900460ff166002811115620009f957620009f8620014bd565b5b8360405162000a0b9392919062001220565b60405180910390a15050565b60016020528060005260406000206000915090508060000160009054906101000a900473ffffffffffffffffffffffffffffffffffffffff16908060000160149054906101000a900460ff169080600101805462000a7590620013d4565b80601f016020809104026020016040519081016040528092919081815260200182805462000aa390620013d4565b801562000af45780601f1062000ac85761010080835404028352916020019162000af4565b820191906000526020600020905b81548152906001019060200180831162000ad657829003601f168201915b5050505050905083565b62000b0862000cb1565b73ffffffffffffffffffffffffffffffffffffffff1662000b28620007e2565b73ffffffffffffffffffffffffffffffffffffffff161462000b81576040517f08c379a000000000000000000000000000000000000000000000000000000000815260040162000b7890620011ba565b60405180910390fd5b600073ffffffffffffffffffffffffffffffffffffffff168173ffffffffffffffffffffffffffffffffffffffff16141562000bf4576040517f08c379a000000000000000000000000000000000000000000000000000000000815260040162000beb9062001154565b60405180910390fd5b8073ffffffffffffffffffffffffffffffffffffffff1660008054906101000a900473ffffffffffffffffffffffffffffffffffffffff1673ffffffffffffffffffffffffffffffffffffffff167f8be0079c531659141344cd1fd0a4f28419497f9722a3daafe3b4186f6b6457e060405160405180910390a3806000806101000a81548173ffffffffffffffffffffffffffffffffffffffff021916908373ffffffffffffffffffffffffffffffffffffffff16021790555050565b600033905090565b610774806200172383390190565b82805462000cd590620013d4565b90600052602060002090601f01602090048101928262000cf9576000855562000d45565b82601f1062000d1457805160ff191683800117855562000d45565b8280016001018555821562000d45579182015b8281111562000d4457825182559160200191906001019062000d27565b5b50905062000d54919062000d58565b5090565b5b8082111562000d7357600081600090555060010162000d59565b5090565b600062000d8e62000d888462001286565b6200125d565b90508281526020810184848401111562000dad5762000dac6200154f565b5b62000dba8482856200138f565b509392505050565b60008135905062000dd381620016ee565b92915050565b600082601f83011262000df15762000df06200154a565b5b813562000e0384826020860162000d77565b91505092915050565b60008135905062000e1d8162001708565b92915050565b60008151905062000e348162001708565b92915050565b60006020828403121562000e535762000e5262001559565b5b600062000e638482850162000dc2565b91505092915050565b6000806040838503121562000e865762000e8562001559565b5b600083013567ffffffffffffffff81111562000ea75762000ea662001554565b5b62000eb58582860162000dd9565b925050602062000ec88582860162000e0c565b9150509250929050565b60006020828403121562000eeb5762000eea62001559565b5b600062000efb8482850162000e0c565b91505092915050565b60006020828403121562000f1d5762000f1c62001559565b5b600062000f2d8482850162000e23565b91505092915050565b62000f4181620012d8565b82525050565b62000f52816200132b565b82525050565b62000f638162001353565b82525050565b62000f74816200137b565b82525050565b600062000f8782620012bc565b62000f938185620012c7565b935062000fa58185602086016200139e565b62000fb0816200155e565b840191505092915050565b600062000fca602683620012c7565b915062000fd7826200156f565b604082019050919050565b600062000ff1602883620012c7565b915062000ffe82620015be565b604082019050919050565b600062001018602183620012c7565b915062001025826200160d565b604082019050919050565b60006200103f602083620012c7565b91506200104c826200165c565b602082019050919050565b600062001066601f83620012c7565b9150620010738262001685565b602082019050919050565b60006200108d600e83620012c7565b91506200109a82620016ae565b602082019050919050565b620010b08162001321565b82525050565b6000602082019050620010cd600083018462000f36565b92915050565b6000606082019050620010ea600083018662000f47565b620010f96020830185620010a5565b620011086040830184620010a5565b949350505050565b600060608201905062001127600083018662000f58565b62001136602083018562000f69565b81810360408301526200114a818462000f7a565b9050949350505050565b600060208201905081810360008301526200116f8162000fbb565b9050919050565b60006020820190508181036000830152620011918162000fe2565b9050919050565b60006020820190508181036000830152620011b38162001009565b9050919050565b60006020820190508181036000830152620011d58162001030565b9050919050565b60006020820190508181036000830152620011f78162001057565b9050919050565b6000602082019050818103600083015262001219816200107e565b9050919050565b6000606082019050620012376000830186620010a5565b620012466020830185620010a5565b62001255604083018462000f36565b949350505050565b6000620012696200127c565b90506200127782826200140a565b919050565b6000604051905090565b600067ffffffffffffffff821115620012a457620012a36200151b565b5b620012af826200155e565b9050602081019050919050565b600081519050919050565b600082825260208201905092915050565b6000620012e58262001301565b9050919050565b6000819050620012fc82620016d7565b919050565b600073ffffffffffffffffffffffffffffffffffffffff82169050919050565b6000819050919050565b600062001338826200133f565b9050919050565b60006200134c8262001301565b9050919050565b6000620013608262001367565b9050919050565b6000620013748262001301565b9050919050565b60006200138882620012ec565b9050919050565b82818337600083830152505050565b60005b83811015620013be578082015181840152602081019050620013a1565b83811115620013ce576000848401525b50505050565b60006002820490506001821680620013ed57607f821691505b60208210811415620014045762001403620014ec565b5b50919050565b62001415826200155e565b810181811067ffffffffffffffff821117156200143757620014366200151b565b5b80604052505050565b60006200144d8262001321565b91507fffffffffffffffffffffffffffffffffffffffffffffffffffffffffffffffff8214156200148357620014826200148e565b5b600182019050919050565b7f4e487b7100000000000000000000000000000000000000000000000000000000600052601160045260246000fd5b7f4e487b7100000000000000000000000000000000000000000000000000000000600052602160045260246000fd5b7f4e487b7100000000000000000000000000000000000000000000000000000000600052602260045260246000fd5b7f4e487b7100000000000000000000000000000000000000000000000000000000600052604160045260246000fd5b600080fd5b600080fd5b600080fd5b600080fd5b6000601f19601f8301169050919050565b7f4f776e61626c653a206e6577206f776e657220697320746865207a65726f206160008201527f6464726573730000000000000000000000000000000000000000000000000000602082015250565b7f4974656d206973204e6f742050616964206f7220697320616c7265616479204460008201527f656c697665726564000000000000000000000000000000000000000000000000602082015250565b7f4974656d20697320616c72656164792050616964206f722044656c697665726560008201527f6400000000000000000000000000000000000000000000000000000000000000602082015250565b7f4f776e61626c653a2063616c6c6572206973206e6f7420746865206f776e6572600082015250565b7f4f6e6c79206974656d732073656c662d7570646174657320616c6c6f77656400600082015250565b7f4e6f742066756c6c792070616964000000000000000000000000000000000000600082015250565b60038110620016eb57620016ea620014bd565b5b50565b620016f981620012d8565b81146200170557600080fd5b50565b620017138162001321565b81146200171f57600080fd5b5056fe608060405234801561001057600080fd5b50604051610774380380610774833981810160405281019061003291906100b3565b816000819055508060028190555082600360006101000a81548173ffffffffffffffffffffffffffffffffffffffff021916908373ffffffffffffffffffffffffffffffffffffffff160217905550505050610187565b60008151905061009881610159565b92915050565b6000815190506100ad81610170565b92915050565b6000806000606084860312156100cc576100cb610154565b5b60006100da86828701610089565b93505060206100eb8682870161009e565b92505060406100fc8682870161009e565b9150509250925092565b60006101118261012a565b9050919050565b600061012382610106565b9050919050565b600073ffffffffffffffffffffffffffffffffffffffff82169050919050565b6000819050919050565b600080fd5b61016281610118565b811461016d57600080fd5b50565b6101798161014a565b811461018457600080fd5b50565b6105de806101966000396000f3fe6080604052600436106100385760003560e01c80632986c0e5146102505780633c8da5881461027b57806383d12eef146102a657610241565b36610241576000543414610081576040517f08c379a0000000000000000000000000000000000000000000000000000000008152600401610078906103a3565b60405180910390fd5b6000600154146100c6576040517f08c379a00000000000000000000000000000000000000000000000000000000081526004016100bd906103e3565b60405180910390fd5b34600160008282546100d89190610445565b925050819055506000600360009054906101000a900473ffffffffffffffffffffffffffffffffffffffff1673ffffffffffffffffffffffffffffffffffffffff163460025460405160240161012e9190610403565b6040516020818303038152906040527f1e0b1fdf000000000000000000000000000000000000000000000000000000007bffffffffffffffffffffffffffffffffffffffffffffffffffffffff19166020820180517bffffffffffffffffffffffffffffffffffffffffffffffffffffffff83818316178352505050506040516101b8919061038c565b60006040518083038185875af1925050503d80600081146101f5576040519150601f19603f3d011682016040523d82523d6000602084013e6101fa565b606091505b505090508061023e576040517f08c379a0000000000000000000000000000000000000000000000000000000008152600401610235906103c3565b60405180910390fd5b50005b34801561024d57600080fd5b50005b34801561025c57600080fd5b506102656102d1565b6040516102729190610403565b60405180910390f35b34801561028757600080fd5b506102906102d7565b60405161029d9190610403565b60405180910390f35b3480156102b257600080fd5b506102bb6102dd565b6040516102c89190610403565b60405180910390f35b60025481565b60005481565b60015481565b60006102ee8261041e565b6102f88185610429565b93506103088185602086016104a5565b80840191505092915050565b6000610321602283610434565b915061032c82610507565b604082019050919050565b6000610344601583610434565b915061034f82610556565b602082019050919050565b6000610367601483610434565b91506103728261057f565b602082019050919050565b6103868161049b565b82525050565b600061039882846102e3565b915081905092915050565b600060208201905081810360008301526103bc81610314565b9050919050565b600060208201905081810360008301526103dc81610337565b9050919050565b600060208201905081810360008301526103fc8161035a565b9050919050565b6000602082019050610418600083018461037d565b92915050565b600081519050919050565b600081905092915050565b600082825260208201905092915050565b60006104508261049b565b915061045b8361049b565b9250827fffffffffffffffffffffffffffffffffffffffffffffffffffffffffffffffff038211156104905761048f6104d8565b5b828201905092915050565b6000819050919050565b60005b838110156104c35780820151818401526020810190506104a8565b838111156104d2576000848401525b50505050565b7f4e487b7100000000000000000000000000000000000000000000000000000000600052601160045260246000fd5b7f446f6573206e6f74206d617463682066756c6c207072696365206f662069746560008201527f6d2e000000000000000000000000000000000000000000000000000000000000602082015250565b7f44656c697665727920646964206e6f7420776f726b0000000000000000000000600082015250565b7f4974656d20697320616c7265616479207061696400000000000000000000000060008201525056fea2646970667358221220f91e806f97507f2ea46ff4f96cca0bae591991136674a1ee064dc9502086aa4a64736f6c63430008060033a2646970667358221220360e133dac65586da8ccf5650b798577e920262e3a6f7c158f8e0b894413c52464736f6c63430008060033",
  "immutableReferences": {},
  "source": "// SPDX-License-Identifier: MIT\npragma solidity >=0.8.6 <0.9.0;\nimport './Item.sol';\nimport \"@openzeppelin/contracts/access/Ownable.sol\";\n\ncontract ItemManager is Ownable {\n    enum SupplyChainSteps { Created, Paid, Delivered }\n    \n    struct S_Item {\n        Item _item;\n        ItemManager.SupplyChainSteps _step;\n        string _identifier;\n    }\n    \n    mapping(uint => S_Item) public items;\n    uint index;\n    \n    event addSupplyChainStep(uint _itemIndex, uint _step, address _address);\n    \n    function createItem(string memory _identifier, uint _priceInWei) public onlyOwner {\n        Item item = new Item(this, _priceInWei, index);\n        items[index]._item = item;\n        items[index]._step = SupplyChainSteps.Created;\n        items[index]._identifier = _identifier;\n\n        // emit events before changing state vars\n        emit addSupplyChainStep(index, uint(items[index]._step), address(item));\n        index++;\n    }\n    \n    function payItem(uint _index) public payable {\n        Item item = items[_index]._item;\n        require(address(item) == msg.sender, \"Only items self-updates allowed\");\n        require(item.priceInWei() <= msg.value, \"Not fully paid\");\n        // TODO: customer can currently overpay. Add store credit or refund balance transaction.\n        \n        require(items[_index]._step == SupplyChainSteps.Created, \"Item is already Paid or Delivered\");\n        items[_index]._step = SupplyChainSteps.Paid;\n        emit addSupplyChainStep(_index, uint(items[_index]._step),address(item));\n    }\n    \n    function deliverItem(uint _index) public onlyOwner {\n        Item item = items[_index]._item;\n        require(items[_index]._step == SupplyChainSteps.Paid, \"Item is Not Paid or is already Delivered\");\n        items[_index]._step = SupplyChainSteps.Delivered;\n        emit addSupplyChainStep(_index, uint(items[_index]._step), address(item));\n    }\n    \n}\n\n",
  "sourcePath": "/Users/cedric/Documents/Projects/supply-chain-monorepo/contracts/ItemManager.sol",
  "compiler": {
    "name": "solc",
    "version": "0.8.6+commit.11564f7e.Emscripten.clang"
  },
  "schemaVersion": "3.4.1",
  "updatedAt": "2021-06-27T10:05:33.309Z",
  "networkType": "ethereum",
  "devdoc": {
    "kind": "dev",
    "methods": {
      "owner()": {
        "details": "Returns the address of the current owner."
      },
      "renounceOwnership()": {
        "details": "Leaves the contract without owner. It will not be possible to call `onlyOwner` functions anymore. Can only be called by the current owner. NOTE: Renouncing ownership will leave the contract without an owner, thereby removing any functionality that is only available to the owner."
      },
      "transferOwnership(address)": {
        "details": "Transfers ownership of the contract to a new account (`newOwner`). Can only be called by the current owner."
      }
    },
    "version": 1
  },
  "userdoc": {
    "kind": "user",
    "methods": {},
    "version": 1
  }
}